


ARM Macro Assembler    Page 1 


    1 00000000         ;******************** (C) COPYRIGHT 2016 STMicroelectron
                       ics ********************
    2 00000000         ;* File Name          : startup_stm32l051xx.s
    3 00000000         ;* Author             : MCD Application Team
    4 00000000         ;* Description        : STM32l051xx Devices vector table
                        for MDK-ARM toolchain.
    5 00000000         ;*                      This module performs:
    6 00000000         ;*                      - Set the initial SP
    7 00000000         ;*                      - Set the initial PC == Reset_Ha
                       ndler
    8 00000000         ;*                      - Set the vector table entries w
                       ith the exceptions ISR address
    9 00000000         ;*                      - Branches to __main in the C li
                       brary (which eventually
   10 00000000         ;*                        calls main()).
   11 00000000         ;*                      After Reset the Cortex-M0+ proce
                       ssor is in Thread mode,
   12 00000000         ;*                      priority is Privileged, and the 
                       Stack is set to Main.
   13 00000000         ;*******************************************************
                       ************************
   14 00000000         ;* 
   15 00000000         ;* Redistribution and use in source and binary forms, wi
                       th or without modification,
   16 00000000         ;* are permitted provided that the following conditions 
                       are met:
   17 00000000         ;*   1. Redistributions of source code must retain the a
                       bove copyright notice,
   18 00000000         ;*      this list of conditions and the following discla
                       imer.
   19 00000000         ;*   2. Redistributions in binary form must reproduce th
                       e above copyright notice,
   20 00000000         ;*      this list of conditions and the following discla
                       imer in the documentation
   21 00000000         ;*      and/or other materials provided with the distrib
                       ution.
   22 00000000         ;*   3. Neither the name of STMicroelectronics nor the n
                       ames of its contributors
   23 00000000         ;*      may be used to endorse or promote products deriv
                       ed from this software
   24 00000000         ;*      without specific prior written permission.
   25 00000000         ;*
   26 00000000         ;* THIS SOFTWARE IS PROVIDED BY THE COPYRIGHT HOLDERS AN
                       D CONTRIBUTORS "AS IS"
   27 00000000         ;* AND ANY EXPRESS OR IMPLIED WARRANTIES, INCLUDING, BUT
                        NOT LIMITED TO, THE
   28 00000000         ;* IMPLIED WARRANTIES OF MERCHANTABILITY AND FITNESS FOR
                        A PARTICULAR PURPOSE ARE
   29 00000000         ;* DISCLAIMED. IN NO EVENT SHALL THE COPYRIGHT HOLDER OR
                        CONTRIBUTORS BE LIABLE
   30 00000000         ;* FOR ANY DIRECT, INDIRECT, INCIDENTAL, SPECIAL, EXEMPL
                       ARY, OR CONSEQUENTIAL
   31 00000000         ;* DAMAGES (INCLUDING, BUT NOT LIMITED TO, PROCUREMENT O
                       F SUBSTITUTE GOODS OR
   32 00000000         ;* SERVICES; LOSS OF USE, DATA, OR PROFITS; OR BUSINESS 
                       INTERRUPTION) HOWEVER
   33 00000000         ;* CAUSED AND ON ANY THEORY OF LIABILITY, WHETHER IN CON
                       TRACT, STRICT LIABILITY,
   34 00000000         ;* OR TORT (INCLUDING NEGLIGENCE OR OTHERWISE) ARISING I



ARM Macro Assembler    Page 2 


                       N ANY WAY OUT OF THE USE
   35 00000000         ;* OF THIS SOFTWARE, EVEN IF ADVISED OF THE POSSIBILITY 
                       OF SUCH DAMAGE.
   36 00000000         ;*
   37 00000000         ;*******************************************************
                       ************************
   38 00000000         ;
   39 00000000         ; Amount of memory (in bytes) allocated for Stack
   40 00000000         ; Tailor this value to your application needs
   41 00000000         ; <h> Stack Configuration
   42 00000000         ;   <o> Stack Size (in Bytes) <0x0-0xFFFFFFFF:8>
   43 00000000         ; </h>
   44 00000000         
   45 00000000 00000400 
                       Stack_Size
                               EQU              0x400
   46 00000000         
   47 00000000                 AREA             STACK, NOINIT, READWRITE, ALIGN
=3
   48 00000000         Stack_Mem
                               SPACE            Stack_Size
   49 00000400         __initial_sp
   50 00000400         
   51 00000400         
   52 00000400         ; <h> Heap Configuration
   53 00000400         ;   <o>  Heap Size (in Bytes) <0x0-0xFFFFFFFF:8>
   54 00000400         ; </h>
   55 00000400         
   56 00000400 00000200 
                       Heap_Size
                               EQU              0x200
   57 00000400         
   58 00000400                 AREA             HEAP, NOINIT, READWRITE, ALIGN=
3
   59 00000000         __heap_base
   60 00000000         Heap_Mem
                               SPACE            Heap_Size
   61 00000200         __heap_limit
   62 00000200         
   63 00000200                 PRESERVE8
   64 00000200                 THUMB
   65 00000200         
   66 00000200         
   67 00000200         ; Vector Table Mapped to Address 0 at Reset
   68 00000200                 AREA             RESET, DATA, READONLY
   69 00000000                 EXPORT           __Vectors
   70 00000000                 EXPORT           __Vectors_End
   71 00000000                 EXPORT           __Vectors_Size
   72 00000000         
   73 00000000 00000000 
                       __Vectors
                               DCD              __initial_sp ; Top of Stack
   74 00000004 00000000        DCD              Reset_Handler ; Reset Handler
   75 00000008 00000000        DCD              NMI_Handler ; NMI Handler
   76 0000000C 00000000        DCD              HardFault_Handler ; Hard Fault 
                                                            Handler
   77 00000010 00000000        DCD              0           ; Reserved
   78 00000014 00000000        DCD              0           ; Reserved
   79 00000018 00000000        DCD              0           ; Reserved



ARM Macro Assembler    Page 3 


   80 0000001C 00000000        DCD              0           ; Reserved
   81 00000020 00000000        DCD              0           ; Reserved
   82 00000024 00000000        DCD              0           ; Reserved
   83 00000028 00000000        DCD              0           ; Reserved
   84 0000002C 00000000        DCD              SVC_Handler ; SVCall Handler
   85 00000030 00000000        DCD              0           ; Reserved
   86 00000034 00000000        DCD              0           ; Reserved
   87 00000038 00000000        DCD              PendSV_Handler ; PendSV Handler
                                                            
   88 0000003C 00000000        DCD              SysTick_Handler 
                                                            ; SysTick Handler
   89 00000040         
   90 00000040         ; External Interrupts
   91 00000040 00000000        DCD              WWDG_IRQHandler 
                                                            ; Window Watchdog
   92 00000044 00000000        DCD              PVD_IRQHandler ; PVD through EX
                                                            TI Line detect
   93 00000048 00000000        DCD              RTC_IRQHandler ; RTC through EX
                                                            TI Line
   94 0000004C 00000000        DCD              FLASH_IRQHandler ; FLASH
   95 00000050 00000000        DCD              RCC_IRQHandler ; RCC
   96 00000054 00000000        DCD              EXTI0_1_IRQHandler 
                                                            ; EXTI Line 0 and 1
                                                            
   97 00000058 00000000        DCD              EXTI2_3_IRQHandler 
                                                            ; EXTI Line 2 and 3
                                                            
   98 0000005C 00000000        DCD              EXTI4_15_IRQHandler 
                                                            ; EXTI Line 4 to 15
                                                            
   99 00000060 00000000        DCD              0           ; Reserved
  100 00000064 00000000        DCD              DMA1_Channel1_IRQHandler 
                                                            ; DMA1 Channel 1
  101 00000068 00000000        DCD              DMA1_Channel2_3_IRQHandler ; DM
                                                            A1 Channel 2 and Ch
                                                            annel 3
  102 0000006C 00000000        DCD              DMA1_Channel4_5_6_7_IRQHandler 
                                                            ; DMA1 Channel 4, C
                                                            hannel 5, Channel 6
                                                             and Channel 7
  103 00000070 00000000        DCD              ADC1_COMP_IRQHandler ; ADC1, CO
                                                            MP1 and COMP2 
  104 00000074 00000000        DCD              LPTIM1_IRQHandler ; LPTIM1
  105 00000078 00000000        DCD              0           ; Reserved
  106 0000007C 00000000        DCD              TIM2_IRQHandler ; TIM2
  107 00000080 00000000        DCD              0           ; Reserved
  108 00000084 00000000        DCD              TIM6_IRQHandler ; TIM6
  109 00000088 00000000        DCD              0           ; Reserved
  110 0000008C 00000000        DCD              0           ; Reserved
  111 00000090 00000000        DCD              TIM21_IRQHandler ; TIM21
  112 00000094 00000000        DCD              0           ; Reserved
  113 00000098 00000000        DCD              TIM22_IRQHandler ; TIM22
  114 0000009C 00000000        DCD              I2C1_IRQHandler ; I2C1
  115 000000A0 00000000        DCD              I2C2_IRQHandler ; I2C2
  116 000000A4 00000000        DCD              SPI1_IRQHandler ; SPI1
  117 000000A8 00000000        DCD              SPI2_IRQHandler ; SPI2
  118 000000AC 00000000        DCD              USART1_IRQHandler ; USART1
  119 000000B0 00000000        DCD              USART2_IRQHandler ; USART2
  120 000000B4 00000000        DCD              LPUART1_IRQHandler ; LPUART1



ARM Macro Assembler    Page 4 


  121 000000B8 00000000        DCD              0           ; Reserved
  122 000000BC 00000000        DCD              0           ; Reserved
  123 000000C0         
  124 000000C0         __Vectors_End
  125 000000C0         
  126 000000C0 000000C0 
                       __Vectors_Size
                               EQU              __Vectors_End - __Vectors
  127 000000C0         
  128 000000C0                 AREA             |.text|, CODE, READONLY
  129 00000000         
  130 00000000         ; Reset handler routine
  131 00000000         Reset_Handler
                               PROC
  132 00000000                 EXPORT           Reset_Handler                 [
WEAK]
  133 00000000                 IMPORT           __main
  134 00000000                 IMPORT           SystemInit
  135 00000000 4804            LDR              R0, =SystemInit
  136 00000002 4780            BLX              R0
  137 00000004 4804            LDR              R0, =__main
  138 00000006 4700            BX               R0
  139 00000008                 ENDP
  140 00000008         
  141 00000008         ; Dummy Exception Handlers (infinite loops which can be 
                       modified)
  142 00000008         
  143 00000008         NMI_Handler
                               PROC
  144 00000008                 EXPORT           NMI_Handler                    
[WEAK]
  145 00000008 E7FE            B                .
  146 0000000A                 ENDP
  148 0000000A         HardFault_Handler
                               PROC
  149 0000000A                 EXPORT           HardFault_Handler              
[WEAK]
  150 0000000A E7FE            B                .
  151 0000000C                 ENDP
  152 0000000C         SVC_Handler
                               PROC
  153 0000000C                 EXPORT           SVC_Handler                    
[WEAK]
  154 0000000C E7FE            B                .
  155 0000000E                 ENDP
  156 0000000E         PendSV_Handler
                               PROC
  157 0000000E                 EXPORT           PendSV_Handler                 
[WEAK]
  158 0000000E E7FE            B                .
  159 00000010                 ENDP
  160 00000010         SysTick_Handler
                               PROC
  161 00000010                 EXPORT           SysTick_Handler                
[WEAK]
  162 00000010 E7FE            B                .
  163 00000012                 ENDP
  164 00000012         
  165 00000012         Default_Handler



ARM Macro Assembler    Page 5 


                               PROC
  166 00000012         
  167 00000012                 EXPORT           WWDG_IRQHandler                
[WEAK]
  168 00000012                 EXPORT           PVD_IRQHandler                 
[WEAK]
  169 00000012                 EXPORT           RTC_IRQHandler                 
[WEAK]
  170 00000012                 EXPORT           FLASH_IRQHandler               
[WEAK]
  171 00000012                 EXPORT           RCC_IRQHandler             [WEA
K]
  172 00000012                 EXPORT           EXTI0_1_IRQHandler             
[WEAK]
  173 00000012                 EXPORT           EXTI2_3_IRQHandler             
[WEAK]
  174 00000012                 EXPORT           EXTI4_15_IRQHandler            
[WEAK]
  175 00000012                 EXPORT           DMA1_Channel1_IRQHandler       
[WEAK]
  176 00000012                 EXPORT           DMA1_Channel2_3_IRQHandler     
[WEAK]
  177 00000012                 EXPORT           DMA1_Channel4_5_6_7_IRQHandler 
[WEAK]
  178 00000012                 EXPORT           ADC1_COMP_IRQHandler           
[WEAK]
  179 00000012                 EXPORT           LPTIM1_IRQHandler              
[WEAK]
  180 00000012                 EXPORT           TIM2_IRQHandler                
[WEAK]
  181 00000012                 EXPORT           TIM6_IRQHandler                
[WEAK]
  182 00000012                 EXPORT           TIM21_IRQHandler               
[WEAK]
  183 00000012                 EXPORT           TIM22_IRQHandler               
[WEAK]
  184 00000012                 EXPORT           I2C1_IRQHandler                
[WEAK]
  185 00000012                 EXPORT           I2C2_IRQHandler                
[WEAK]
  186 00000012                 EXPORT           SPI1_IRQHandler                
[WEAK]
  187 00000012                 EXPORT           SPI2_IRQHandler                
[WEAK]
  188 00000012                 EXPORT           USART1_IRQHandler              
[WEAK]
  189 00000012                 EXPORT           USART2_IRQHandler              
[WEAK]
  190 00000012                 EXPORT           LPUART1_IRQHandler             
[WEAK]
  191 00000012         
  192 00000012         
  193 00000012         
  194 00000012         WWDG_IRQHandler
  195 00000012         PVD_IRQHandler
  196 00000012         RTC_IRQHandler
  197 00000012         FLASH_IRQHandler
  198 00000012         RCC_IRQHandler
  199 00000012         EXTI0_1_IRQHandler



ARM Macro Assembler    Page 6 


  200 00000012         EXTI2_3_IRQHandler
  201 00000012         EXTI4_15_IRQHandler
  202 00000012         DMA1_Channel1_IRQHandler
  203 00000012         DMA1_Channel2_3_IRQHandler
  204 00000012         DMA1_Channel4_5_6_7_IRQHandler
  205 00000012         ADC1_COMP_IRQHandler
  206 00000012         LPTIM1_IRQHandler
  207 00000012         TIM2_IRQHandler
  208 00000012         TIM6_IRQHandler
  209 00000012         TIM21_IRQHandler
  210 00000012         TIM22_IRQHandler
  211 00000012         I2C1_IRQHandler
  212 00000012         I2C2_IRQHandler
  213 00000012         SPI1_IRQHandler
  214 00000012         SPI2_IRQHandler
  215 00000012         USART1_IRQHandler
  216 00000012         USART2_IRQHandler
  217 00000012         LPUART1_IRQHandler
  218 00000012         
  219 00000012 E7FE            B                .
  220 00000014         
  221 00000014                 ENDP
  222 00000014         
  223 00000014                 ALIGN
  224 00000014         
  225 00000014         ;*******************************************************
                       ************************
  226 00000014         ; User Stack and Heap initialization
  227 00000014         ;*******************************************************
                       ************************
  228 00000014                 IF               :DEF:__MICROLIB
  229 00000014         
  230 00000014                 EXPORT           __initial_sp
  231 00000014                 EXPORT           __heap_base
  232 00000014                 EXPORT           __heap_limit
  233 00000014         
  234 00000014                 ELSE
  249                          ENDIF
  250 00000014         
  251 00000014                 END
              00000000 
              00000000 
Command Line: --debug --xref --diag_suppress=9931 --cpu=Cortex-M0+ --apcs=inter
work --depend=my_curtain_robotv2\startup_stm32l051xx.d -omy_curtain_robotv2\sta
rtup_stm32l051xx.o -I.\RTE\_My_curtain_robotV2 -IC:\Users\56540\AppData\Local\A
rm\Packs\ARM\CMSIS\5.5.1\CMSIS\Core\Include -IC:\Users\56540\AppData\Local\Arm\
Packs\Keil\STM32L0xx_DFP\2.0.1\Drivers\CMSIS\Device\ST\STM32L0xx\Include --pred
efine="__MICROLIB SETA 1" --predefine="__UVISION_VERSION SETA 528" --predefine=
"_RTE_ SETA 1" --predefine="STM32L051xx SETA 1" --list=startup_stm32l051xx.lst 
startup_stm32l051xx.s



ARM Macro Assembler    Page 1 Alphabetic symbol ordering
Relocatable symbols

STACK 00000000

Symbol: STACK
   Definitions
      At line 47 in file startup_stm32l051xx.s
   Uses
      None
Comment: STACK unused
Stack_Mem 00000000

Symbol: Stack_Mem
   Definitions
      At line 48 in file startup_stm32l051xx.s
   Uses
      None
Comment: Stack_Mem unused
__initial_sp 00000400

Symbol: __initial_sp
   Definitions
      At line 49 in file startup_stm32l051xx.s
   Uses
      At line 73 in file startup_stm32l051xx.s
      At line 230 in file startup_stm32l051xx.s

3 symbols



ARM Macro Assembler    Page 1 Alphabetic symbol ordering
Relocatable symbols

HEAP 00000000

Symbol: HEAP
   Definitions
      At line 58 in file startup_stm32l051xx.s
   Uses
      None
Comment: HEAP unused
Heap_Mem 00000000

Symbol: Heap_Mem
   Definitions
      At line 60 in file startup_stm32l051xx.s
   Uses
      None
Comment: Heap_Mem unused
__heap_base 00000000

Symbol: __heap_base
   Definitions
      At line 59 in file startup_stm32l051xx.s
   Uses
      At line 231 in file startup_stm32l051xx.s
Comment: __heap_base used once
__heap_limit 00000200

Symbol: __heap_limit
   Definitions
      At line 61 in file startup_stm32l051xx.s
   Uses
      At line 232 in file startup_stm32l051xx.s
Comment: __heap_limit used once
4 symbols



ARM Macro Assembler    Page 1 Alphabetic symbol ordering
Relocatable symbols

RESET 00000000

Symbol: RESET
   Definitions
      At line 68 in file startup_stm32l051xx.s
   Uses
      None
Comment: RESET unused
__Vectors 00000000

Symbol: __Vectors
   Definitions
      At line 73 in file startup_stm32l051xx.s
   Uses
      At line 69 in file startup_stm32l051xx.s
      At line 126 in file startup_stm32l051xx.s

__Vectors_End 000000C0

Symbol: __Vectors_End
   Definitions
      At line 124 in file startup_stm32l051xx.s
   Uses
      At line 70 in file startup_stm32l051xx.s
      At line 126 in file startup_stm32l051xx.s

3 symbols



ARM Macro Assembler    Page 1 Alphabetic symbol ordering
Relocatable symbols

.text 00000000

Symbol: .text
   Definitions
      At line 128 in file startup_stm32l051xx.s
   Uses
      None
Comment: .text unused
ADC1_COMP_IRQHandler 00000012

Symbol: ADC1_COMP_IRQHandler
   Definitions
      At line 205 in file startup_stm32l051xx.s
   Uses
      At line 103 in file startup_stm32l051xx.s
      At line 178 in file startup_stm32l051xx.s

DMA1_Channel1_IRQHandler 00000012

Symbol: DMA1_Channel1_IRQHandler
   Definitions
      At line 202 in file startup_stm32l051xx.s
   Uses
      At line 100 in file startup_stm32l051xx.s
      At line 175 in file startup_stm32l051xx.s

DMA1_Channel2_3_IRQHandler 00000012

Symbol: DMA1_Channel2_3_IRQHandler
   Definitions
      At line 203 in file startup_stm32l051xx.s
   Uses
      At line 101 in file startup_stm32l051xx.s
      At line 176 in file startup_stm32l051xx.s

DMA1_Channel4_5_6_7_IRQHandler 00000012

Symbol: DMA1_Channel4_5_6_7_IRQHandler
   Definitions
      At line 204 in file startup_stm32l051xx.s
   Uses
      At line 102 in file startup_stm32l051xx.s
      At line 177 in file startup_stm32l051xx.s

Default_Handler 00000012

Symbol: Default_Handler
   Definitions
      At line 165 in file startup_stm32l051xx.s
   Uses
      None
Comment: Default_Handler unused
EXTI0_1_IRQHandler 00000012

Symbol: EXTI0_1_IRQHandler
   Definitions
      At line 199 in file startup_stm32l051xx.s
   Uses
      At line 96 in file startup_stm32l051xx.s



ARM Macro Assembler    Page 2 Alphabetic symbol ordering
Relocatable symbols

      At line 172 in file startup_stm32l051xx.s

EXTI2_3_IRQHandler 00000012

Symbol: EXTI2_3_IRQHandler
   Definitions
      At line 200 in file startup_stm32l051xx.s
   Uses
      At line 97 in file startup_stm32l051xx.s
      At line 173 in file startup_stm32l051xx.s

EXTI4_15_IRQHandler 00000012

Symbol: EXTI4_15_IRQHandler
   Definitions
      At line 201 in file startup_stm32l051xx.s
   Uses
      At line 98 in file startup_stm32l051xx.s
      At line 174 in file startup_stm32l051xx.s

FLASH_IRQHandler 00000012

Symbol: FLASH_IRQHandler
   Definitions
      At line 197 in file startup_stm32l051xx.s
   Uses
      At line 94 in file startup_stm32l051xx.s
      At line 170 in file startup_stm32l051xx.s

HardFault_Handler 0000000A

Symbol: HardFault_Handler
   Definitions
      At line 148 in file startup_stm32l051xx.s
   Uses
      At line 76 in file startup_stm32l051xx.s
      At line 149 in file startup_stm32l051xx.s

I2C1_IRQHandler 00000012

Symbol: I2C1_IRQHandler
   Definitions
      At line 211 in file startup_stm32l051xx.s
   Uses
      At line 114 in file startup_stm32l051xx.s
      At line 184 in file startup_stm32l051xx.s

I2C2_IRQHandler 00000012

Symbol: I2C2_IRQHandler
   Definitions
      At line 212 in file startup_stm32l051xx.s
   Uses
      At line 115 in file startup_stm32l051xx.s
      At line 185 in file startup_stm32l051xx.s

LPTIM1_IRQHandler 00000012

Symbol: LPTIM1_IRQHandler



ARM Macro Assembler    Page 3 Alphabetic symbol ordering
Relocatable symbols

   Definitions
      At line 206 in file startup_stm32l051xx.s
   Uses
      At line 104 in file startup_stm32l051xx.s
      At line 179 in file startup_stm32l051xx.s

LPUART1_IRQHandler 00000012

Symbol: LPUART1_IRQHandler
   Definitions
      At line 217 in file startup_stm32l051xx.s
   Uses
      At line 120 in file startup_stm32l051xx.s
      At line 190 in file startup_stm32l051xx.s

NMI_Handler 00000008

Symbol: NMI_Handler
   Definitions
      At line 143 in file startup_stm32l051xx.s
   Uses
      At line 75 in file startup_stm32l051xx.s
      At line 144 in file startup_stm32l051xx.s

PVD_IRQHandler 00000012

Symbol: PVD_IRQHandler
   Definitions
      At line 195 in file startup_stm32l051xx.s
   Uses
      At line 92 in file startup_stm32l051xx.s
      At line 168 in file startup_stm32l051xx.s

PendSV_Handler 0000000E

Symbol: PendSV_Handler
   Definitions
      At line 156 in file startup_stm32l051xx.s
   Uses
      At line 87 in file startup_stm32l051xx.s
      At line 157 in file startup_stm32l051xx.s

RCC_IRQHandler 00000012

Symbol: RCC_IRQHandler
   Definitions
      At line 198 in file startup_stm32l051xx.s
   Uses
      At line 95 in file startup_stm32l051xx.s
      At line 171 in file startup_stm32l051xx.s

RTC_IRQHandler 00000012

Symbol: RTC_IRQHandler
   Definitions
      At line 196 in file startup_stm32l051xx.s
   Uses
      At line 93 in file startup_stm32l051xx.s
      At line 169 in file startup_stm32l051xx.s



ARM Macro Assembler    Page 4 Alphabetic symbol ordering
Relocatable symbols


Reset_Handler 00000000

Symbol: Reset_Handler
   Definitions
      At line 131 in file startup_stm32l051xx.s
   Uses
      At line 74 in file startup_stm32l051xx.s
      At line 132 in file startup_stm32l051xx.s

SPI1_IRQHandler 00000012

Symbol: SPI1_IRQHandler
   Definitions
      At line 213 in file startup_stm32l051xx.s
   Uses
      At line 116 in file startup_stm32l051xx.s
      At line 186 in file startup_stm32l051xx.s

SPI2_IRQHandler 00000012

Symbol: SPI2_IRQHandler
   Definitions
      At line 214 in file startup_stm32l051xx.s
   Uses
      At line 117 in file startup_stm32l051xx.s
      At line 187 in file startup_stm32l051xx.s

SVC_Handler 0000000C

Symbol: SVC_Handler
   Definitions
      At line 152 in file startup_stm32l051xx.s
   Uses
      At line 84 in file startup_stm32l051xx.s
      At line 153 in file startup_stm32l051xx.s

SysTick_Handler 00000010

Symbol: SysTick_Handler
   Definitions
      At line 160 in file startup_stm32l051xx.s
   Uses
      At line 88 in file startup_stm32l051xx.s
      At line 161 in file startup_stm32l051xx.s

TIM21_IRQHandler 00000012

Symbol: TIM21_IRQHandler
   Definitions
      At line 209 in file startup_stm32l051xx.s
   Uses
      At line 111 in file startup_stm32l051xx.s
      At line 182 in file startup_stm32l051xx.s

TIM22_IRQHandler 00000012

Symbol: TIM22_IRQHandler
   Definitions



ARM Macro Assembler    Page 5 Alphabetic symbol ordering
Relocatable symbols

      At line 210 in file startup_stm32l051xx.s
   Uses
      At line 113 in file startup_stm32l051xx.s
      At line 183 in file startup_stm32l051xx.s

TIM2_IRQHandler 00000012

Symbol: TIM2_IRQHandler
   Definitions
      At line 207 in file startup_stm32l051xx.s
   Uses
      At line 106 in file startup_stm32l051xx.s
      At line 180 in file startup_stm32l051xx.s

TIM6_IRQHandler 00000012

Symbol: TIM6_IRQHandler
   Definitions
      At line 208 in file startup_stm32l051xx.s
   Uses
      At line 108 in file startup_stm32l051xx.s
      At line 181 in file startup_stm32l051xx.s

USART1_IRQHandler 00000012

Symbol: USART1_IRQHandler
   Definitions
      At line 215 in file startup_stm32l051xx.s
   Uses
      At line 118 in file startup_stm32l051xx.s
      At line 188 in file startup_stm32l051xx.s

USART2_IRQHandler 00000012

Symbol: USART2_IRQHandler
   Definitions
      At line 216 in file startup_stm32l051xx.s
   Uses
      At line 119 in file startup_stm32l051xx.s
      At line 189 in file startup_stm32l051xx.s

WWDG_IRQHandler 00000012

Symbol: WWDG_IRQHandler
   Definitions
      At line 194 in file startup_stm32l051xx.s
   Uses
      At line 91 in file startup_stm32l051xx.s
      At line 167 in file startup_stm32l051xx.s

32 symbols



ARM Macro Assembler    Page 1 Alphabetic symbol ordering
Absolute symbols

Heap_Size 00000200

Symbol: Heap_Size
   Definitions
      At line 56 in file startup_stm32l051xx.s
   Uses
      At line 60 in file startup_stm32l051xx.s
Comment: Heap_Size used once
Stack_Size 00000400

Symbol: Stack_Size
   Definitions
      At line 45 in file startup_stm32l051xx.s
   Uses
      At line 48 in file startup_stm32l051xx.s
Comment: Stack_Size used once
__Vectors_Size 000000C0

Symbol: __Vectors_Size
   Definitions
      At line 126 in file startup_stm32l051xx.s
   Uses
      At line 71 in file startup_stm32l051xx.s
Comment: __Vectors_Size used once
3 symbols



ARM Macro Assembler    Page 1 Alphabetic symbol ordering
External symbols

SystemInit 00000000

Symbol: SystemInit
   Definitions
      At line 134 in file startup_stm32l051xx.s
   Uses
      At line 135 in file startup_stm32l051xx.s
Comment: SystemInit used once
__main 00000000

Symbol: __main
   Definitions
      At line 133 in file startup_stm32l051xx.s
   Uses
      At line 137 in file startup_stm32l051xx.s
Comment: __main used once
2 symbols
383 symbols in table
